{
    "contractName": "GalileoStaking",
    "abi": [
        {
            "inputs": [
                {
                    "internalType": "address",
                    "name": "_leox",
                    "type": "address"
                },
                {
                    "internalType": "address",
                    "name": "_galileoSoulBoundToken",
                    "type": "address"
                }
            ],
            "stateMutability": "nonpayable",
            "type": "constructor"
        },
        {
            "inputs": [],
            "name": "AccessControlBadConfirmation",
            "type": "error"
        },
        {
            "inputs": [
                {
                    "internalType": "address",
                    "name": "account",
                    "type": "address"
                },
                {
                    "internalType": "bytes32",
                    "name": "neededRole",
                    "type": "bytes32"
                }
            ],
            "name": "AccessControlUnauthorizedAccount",
            "type": "error"
        },
        {
            "inputs": [],
            "name": "CollectionUninitialized",
            "type": "error"
        },
        {
            "inputs": [
                {
                    "internalType": "address",
                    "name": "collectionAddress",
                    "type": "address"
                }
            ],
            "name": "InvalidAddress",
            "type": "error"
        },
        {
            "inputs": [],
            "name": "InvalidTime",
            "type": "error"
        },
        {
            "inputs": [],
            "name": "InvalidTokenId",
            "type": "error"
        },
        {
            "inputs": [
                {
                    "internalType": "uint256",
                    "name": "maxLeox",
                    "type": "uint256"
                }
            ],
            "name": "InvalidTokensCount",
            "type": "error"
        },
        {
            "inputs": [
                {
                    "internalType": "address",
                    "name": "collectionAddress",
                    "type": "address"
                }
            ],
            "name": "PoolUninitialized",
            "type": "error"
        },
        {
            "inputs": [],
            "name": "ReentrancyGuardReentrantCall",
            "type": "error"
        },
        {
            "inputs": [],
            "name": "RewardWindowTimesMustIncrease",
            "type": "error"
        },
        {
            "inputs": [],
            "name": "TokenAlreadyStaked",
            "type": "error"
        },
        {
            "anonymous": false,
            "inputs": [
                {
                    "indexed": true,
                    "internalType": "uint256[]",
                    "name": "tokenId",
                    "type": "uint256[]"
                },
                {
                    "indexed": true,
                    "internalType": "uint256",
                    "name": "category",
                    "type": "uint256"
                }
            ],
            "name": "CategorySet",
            "type": "event"
        },
        {
            "anonymous": false,
            "inputs": [
                {
                    "indexed": false,
                    "internalType": "address",
                    "name": "collectionAddress",
                    "type": "address"
                },
                {
                    "indexed": false,
                    "internalType": "uint256",
                    "name": "totalCategories",
                    "type": "uint256"
                }
            ],
            "name": "ConfigureCollection",
            "type": "event"
        },
        {
            "anonymous": false,
            "inputs": [
                {
                    "indexed": false,
                    "internalType": "address",
                    "name": "collectionAddress",
                    "type": "address"
                },
                {
                    "components": [
                        {
                            "internalType": "uint256",
                            "name": "stakingTime",
                            "type": "uint256"
                        },
                        {
                            "internalType": "uint256",
                            "name": "stakingBoost",
                            "type": "uint256"
                        }
                    ],
                    "indexed": false,
                    "internalType": "struct GalileoStaking.Multiplier[]",
                    "name": "multipliers",
                    "type": "tuple[]"
                }
            ],
            "name": "MultipliersSet",
            "type": "event"
        },
        {
            "anonymous": false,
            "inputs": [
                {
                    "indexed": true,
                    "internalType": "bytes32",
                    "name": "role",
                    "type": "bytes32"
                },
                {
                    "indexed": true,
                    "internalType": "bytes32",
                    "name": "previousAdminRole",
                    "type": "bytes32"
                },
                {
                    "indexed": true,
                    "internalType": "bytes32",
                    "name": "newAdminRole",
                    "type": "bytes32"
                }
            ],
            "name": "RoleAdminChanged",
            "type": "event"
        },
        {
            "anonymous": false,
            "inputs": [
                {
                    "indexed": true,
                    "internalType": "bytes32",
                    "name": "role",
                    "type": "bytes32"
                },
                {
                    "indexed": true,
                    "internalType": "address",
                    "name": "account",
                    "type": "address"
                },
                {
                    "indexed": true,
                    "internalType": "address",
                    "name": "sender",
                    "type": "address"
                }
            ],
            "name": "RoleGranted",
            "type": "event"
        },
        {
            "anonymous": false,
            "inputs": [
                {
                    "indexed": true,
                    "internalType": "bytes32",
                    "name": "role",
                    "type": "bytes32"
                },
                {
                    "indexed": true,
                    "internalType": "address",
                    "name": "account",
                    "type": "address"
                },
                {
                    "indexed": true,
                    "internalType": "address",
                    "name": "sender",
                    "type": "address"
                }
            ],
            "name": "RoleRevoked",
            "type": "event"
        },
        {
            "anonymous": false,
            "inputs": [
                {
                    "indexed": false,
                    "internalType": "uint256",
                    "name": "category",
                    "type": "uint256"
                },
                {
                    "indexed": true,
                    "internalType": "address",
                    "name": "collectionAddress",
                    "type": "address"
                }
            ],
            "name": "SetCollection",
            "type": "event"
        },
        {
            "anonymous": false,
            "inputs": [
                {
                    "indexed": false,
                    "internalType": "address",
                    "name": "collectionAddress",
                    "type": "address"
                },
                {
                    "indexed": false,
                    "internalType": "uint256",
                    "name": "tokenId",
                    "type": "uint256"
                },
                {
                    "indexed": false,
                    "internalType": "uint256",
                    "name": "category",
                    "type": "uint256"
                },
                {
                    "indexed": false,
                    "internalType": "uint256",
                    "name": "timelockEndTime",
                    "type": "uint256"
                },
                {
                    "indexed": false,
                    "internalType": "uint256",
                    "name": "points",
                    "type": "uint256"
                },
                {
                    "indexed": false,
                    "internalType": "uint256",
                    "name": "stakedLEOX",
                    "type": "uint256"
                }
            ],
            "name": "StakeToken",
            "type": "event"
        },
        {
            "inputs": [],
            "name": "ADMIN_ROLE",
            "outputs": [
                {
                    "internalType": "bytes32",
                    "name": "",
                    "type": "bytes32"
                }
            ],
            "stateMutability": "view",
            "type": "function"
        },
        {
            "inputs": [],
            "name": "DEFAULT_ADMIN_ROLE",
            "outputs": [
                {
                    "internalType": "bytes32",
                    "name": "",
                    "type": "bytes32"
                }
            ],
            "stateMutability": "view",
            "type": "function"
        },
        {
            "inputs": [],
            "name": "GalileoSoulBoundToken",
            "outputs": [
                {
                    "internalType": "address",
                    "name": "",
                    "type": "address"
                }
            ],
            "stateMutability": "view",
            "type": "function"
        },
        {
            "inputs": [],
            "name": "LEOX",
            "outputs": [
                {
                    "internalType": "address",
                    "name": "",
                    "type": "address"
                }
            ],
            "stateMutability": "view",
            "type": "function"
        },
        {
            "inputs": [
                {
                    "internalType": "address",
                    "name": "collectionAddress",
                    "type": "address"
                },
                {
                    "internalType": "uint256",
                    "name": "timelockEndTime",
                    "type": "uint256"
                },
                {
                    "internalType": "uint256",
                    "name": "stakedLeox",
                    "type": "uint256"
                },
                {
                    "components": [
                        {
                            "internalType": "uint256[]",
                            "name": "tokenIds",
                            "type": "uint256[]"
                        },
                        {
                            "internalType": "uint256",
                            "name": "maxLeox",
                            "type": "uint256"
                        },
                        {
                            "internalType": "uint256",
                            "name": "yieldTraitPoints",
                            "type": "uint256"
                        },
                        {
                            "internalType": "string",
                            "name": "collectionName",
                            "type": "string"
                        }
                    ],
                    "internalType": "struct GalileoStaking.StakeInfo",
                    "name": "_stakeInfo",
                    "type": "tuple"
                }
            ],
            "name": "calculatePoints",
            "outputs": [
                {
                    "internalType": "uint256",
                    "name": "",
                    "type": "uint256"
                }
            ],
            "stateMutability": "view",
            "type": "function"
        },
        {
            "inputs": [
                {
                    "internalType": "uint256",
                    "name": "stakedTokens",
                    "type": "uint256"
                }
            ],
            "name": "calculateStakeLeoxPoints",
            "outputs": [
                {
                    "internalType": "uint256",
                    "name": "",
                    "type": "uint256"
                }
            ],
            "stateMutability": "pure",
            "type": "function"
        },
        {
            "inputs": [
                {
                    "internalType": "address",
                    "name": "collectionAddress",
                    "type": "address"
                },
                {
                    "components": [
                        {
                            "internalType": "uint256[]",
                            "name": "tokenIds",
                            "type": "uint256[]"
                        },
                        {
                            "internalType": "uint256",
                            "name": "maxLeox",
                            "type": "uint256"
                        },
                        {
                            "internalType": "uint256",
                            "name": "yieldTraitPoints",
                            "type": "uint256"
                        }
                    ],
                    "internalType": "struct GalileoStaking.StakeInfoInput[]",
                    "name": "_stakeInfo",
                    "type": "tuple[]"
                }
            ],
            "name": "configureCollection",
            "outputs": [],
            "stateMutability": "nonpayable",
            "type": "function"
        },
        {
            "inputs": [
                {
                    "components": [
                        {
                            "internalType": "address",
                            "name": "collectionAddress",
                            "type": "address"
                        },
                        {
                            "internalType": "uint256",
                            "name": "tax",
                            "type": "uint256"
                        },
                        {
                            "components": [
                                {
                                    "internalType": "uint128",
                                    "name": "startTime",
                                    "type": "uint128"
                                },
                                {
                                    "internalType": "uint128",
                                    "name": "reward",
                                    "type": "uint128"
                                }
                            ],
                            "internalType": "struct GalileoStaking.RewardWindow[]",
                            "name": "rewardWindows",
                            "type": "tuple[]"
                        }
                    ],
                    "internalType": "struct GalileoStaking.PoolConfigurationInput[]",
                    "name": "_inputs",
                    "type": "tuple[]"
                }
            ],
            "name": "configurePool",
            "outputs": [],
            "stateMutability": "nonpayable",
            "type": "function"
        },
        {
            "inputs": [
                {
                    "internalType": "uint256",
                    "name": "tokenId",
                    "type": "uint256"
                },
                {
                    "internalType": "address",
                    "name": "collectionAddress",
                    "type": "address"
                }
            ],
            "name": "getCategory",
            "outputs": [
                {
                    "internalType": "uint256",
                    "name": "",
                    "type": "uint256"
                }
            ],
            "stateMutability": "view",
            "type": "function"
        },
        {
            "inputs": [
                {
                    "internalType": "address",
                    "name": "collectionAddress",
                    "type": "address"
                },
                {
                    "internalType": "uint256",
                    "name": "category",
                    "type": "uint256"
                }
            ],
            "name": "getMaxLeoxPerCategory",
            "outputs": [
                {
                    "components": [
                        {
                            "internalType": "uint256[]",
                            "name": "tokenIds",
                            "type": "uint256[]"
                        },
                        {
                            "internalType": "uint256",
                            "name": "maxLeox",
                            "type": "uint256"
                        },
                        {
                            "internalType": "uint256",
                            "name": "yieldTraitPoints",
                            "type": "uint256"
                        },
                        {
                            "internalType": "string",
                            "name": "collectionName",
                            "type": "string"
                        }
                    ],
                    "internalType": "struct GalileoStaking.StakeInfo",
                    "name": "",
                    "type": "tuple"
                }
            ],
            "stateMutability": "view",
            "type": "function"
        },
        {
            "inputs": [
                {
                    "internalType": "address",
                    "name": "collectionAddress",
                    "type": "address"
                }
            ],
            "name": "getMultipliers",
            "outputs": [
                {
                    "components": [
                        {
                            "internalType": "uint256",
                            "name": "stakingTime",
                            "type": "uint256"
                        },
                        {
                            "internalType": "uint256",
                            "name": "stakingBoost",
                            "type": "uint256"
                        }
                    ],
                    "internalType": "struct GalileoStaking.Multiplier[]",
                    "name": "",
                    "type": "tuple[]"
                }
            ],
            "stateMutability": "view",
            "type": "function"
        },
        {
            "inputs": [
                {
                    "internalType": "address",
                    "name": "collectionAddress",
                    "type": "address"
                }
            ],
            "name": "getPoolConfiguration",
            "outputs": [
                {
                    "internalType": "uint256",
                    "name": "totalPoints",
                    "type": "uint256"
                },
                {
                    "internalType": "uint256",
                    "name": "rewardCount",
                    "type": "uint256"
                },
                {
                    "components": [
                        {
                            "internalType": "uint128",
                            "name": "startTime",
                            "type": "uint128"
                        },
                        {
                            "internalType": "uint128",
                            "name": "reward",
                            "type": "uint128"
                        }
                    ],
                    "internalType": "struct GalileoStaking.RewardWindow[]",
                    "name": "rewardWindows",
                    "type": "tuple[]"
                }
            ],
            "stateMutability": "view",
            "type": "function"
        },
        {
            "inputs": [
                {
                    "internalType": "bytes32",
                    "name": "role",
                    "type": "bytes32"
                }
            ],
            "name": "getRoleAdmin",
            "outputs": [
                {
                    "internalType": "bytes32",
                    "name": "",
                    "type": "bytes32"
                }
            ],
            "stateMutability": "view",
            "type": "function"
        },
        {
            "inputs": [
                {
                    "internalType": "address",
                    "name": "walletAddress",
                    "type": "address"
                },
                {
                    "internalType": "address",
                    "name": "collectionAddress",
                    "type": "address"
                },
                {
                    "internalType": "uint256",
                    "name": "tokenId",
                    "type": "uint256"
                }
            ],
            "name": "getStakersPosition",
            "outputs": [
                {
                    "components": [
                        {
                            "internalType": "address",
                            "name": "collectionAddress",
                            "type": "address"
                        },
                        {
                            "internalType": "uint256",
                            "name": "tokenId",
                            "type": "uint256"
                        },
                        {
                            "internalType": "uint256",
                            "name": "category",
                            "type": "uint256"
                        },
                        {
                            "internalType": "uint256",
                            "name": "timelockStartTime",
                            "type": "uint256"
                        },
                        {
                            "internalType": "uint256",
                            "name": "timelockEndTime",
                            "type": "uint256"
                        },
                        {
                            "internalType": "uint256",
                            "name": "points",
                            "type": "uint256"
                        },
                        {
                            "internalType": "uint256",
                            "name": "stakedLEOX",
                            "type": "uint256"
                        }
                    ],
                    "internalType": "struct GalileoStaking.StakePerCategory",
                    "name": "",
                    "type": "tuple"
                }
            ],
            "stateMutability": "view",
            "type": "function"
        },
        {
            "inputs": [
                {
                    "internalType": "bytes32",
                    "name": "role",
                    "type": "bytes32"
                },
                {
                    "internalType": "address",
                    "name": "account",
                    "type": "address"
                }
            ],
            "name": "grantRole",
            "outputs": [],
            "stateMutability": "nonpayable",
            "type": "function"
        },
        {
            "inputs": [
                {
                    "internalType": "bytes32",
                    "name": "role",
                    "type": "bytes32"
                },
                {
                    "internalType": "address",
                    "name": "account",
                    "type": "address"
                }
            ],
            "name": "hasRole",
            "outputs": [
                {
                    "internalType": "bool",
                    "name": "",
                    "type": "bool"
                }
            ],
            "stateMutability": "view",
            "type": "function"
        },
        {
            "inputs": [
                {
                    "internalType": "bytes32",
                    "name": "role",
                    "type": "bytes32"
                },
                {
                    "internalType": "address",
                    "name": "callerConfirmation",
                    "type": "address"
                }
            ],
            "name": "renounceRole",
            "outputs": [],
            "stateMutability": "nonpayable",
            "type": "function"
        },
        {
            "inputs": [
                {
                    "internalType": "bytes32",
                    "name": "role",
                    "type": "bytes32"
                },
                {
                    "internalType": "address",
                    "name": "account",
                    "type": "address"
                }
            ],
            "name": "revokeRole",
            "outputs": [],
            "stateMutability": "nonpayable",
            "type": "function"
        },
        {
            "inputs": [
                {
                    "internalType": "address",
                    "name": "collectionAddress",
                    "type": "address"
                },
                {
                    "components": [
                        {
                            "internalType": "uint256",
                            "name": "stakingTime",
                            "type": "uint256"
                        },
                        {
                            "internalType": "uint256",
                            "name": "stakingBoost",
                            "type": "uint256"
                        }
                    ],
                    "internalType": "struct GalileoStaking.Multiplier[]",
                    "name": "multipliers",
                    "type": "tuple[]"
                }
            ],
            "name": "setMultipliers",
            "outputs": [],
            "stateMutability": "nonpayable",
            "type": "function"
        },
        {
            "inputs": [
                {
                    "internalType": "address",
                    "name": "collectionAddress",
                    "type": "address"
                },
                {
                    "internalType": "uint256",
                    "name": "tokenId",
                    "type": "uint256"
                },
                {
                    "internalType": "uint256",
                    "name": "category",
                    "type": "uint256"
                },
                {
                    "internalType": "uint256",
                    "name": "stakedLeox",
                    "type": "uint256"
                },
                {
                    "internalType": "uint256",
                    "name": "timelockEndTime",
                    "type": "uint256"
                }
            ],
            "name": "stake",
            "outputs": [],
            "stateMutability": "nonpayable",
            "type": "function"
        },
        {
            "inputs": [
                {
                    "internalType": "bytes4",
                    "name": "interfaceId",
                    "type": "bytes4"
                }
            ],
            "name": "supportsInterface",
            "outputs": [
                {
                    "internalType": "bool",
                    "name": "",
                    "type": "bool"
                }
            ],
            "stateMutability": "view",
            "type": "function"
        }
    ],
    "bytecode": "60c060405234801562000010575f80fd5b50604051620024d4380380620024d48339810160408190526200003391620001b1565b60016003556001600160a01b038216620000935760405162461bcd60e51b815260206004820152601e60248201527f496e76616c69642041646472657373202d2041646472657373205a65726f0000604482015260640160405180910390fd5b6200009f5f33620000e5565b50620000cc7fa49807205ce4d355092ef5a8a18f56e8913cf4a201fbe287825b095693c2177533620000e5565b506001600160a01b039182166080521660a052620001e7565b5f8281526002602090815260408083206001600160a01b038516845290915281205460ff166200018c575f8381526002602090815260408083206001600160a01b03861684529091529020805460ff19166001179055620001433390565b6001600160a01b0316826001600160a01b0316847f2f8788117e7eff1d82e926ec794901d17c78024a50270940304540a733656f0d60405160405180910390a45060016200018f565b505f5b92915050565b80516001600160a01b0381168114620001ac575f80fd5b919050565b5f8060408385031215620001c3575f80fd5b620001ce8362000195565b9150620001de6020840162000195565b90509250929050565b60805160a0516122bd620002175f395f8181610336015261159001525f818161028101526113cc01526122bd5ff3fe608060405234801561000f575f80fd5b5060043610610132575f3560e01c80636c2b17a8116100b4578063caadaa7711610079578063caadaa771461031e578063cf140d9914610331578063d547741f14610358578063dec9699d1461036b578063f12a623b1461038b578063f3ef3fde1461039e575f80fd5b80636c2b17a8146102bb5780636f44bb69146102ce57806375b238fc146102f057806391d1485414610304578063a217fddf14610317575f80fd5b80632a0f7700116100fa5780632a0f77001461022e5780632f2ff15d1461024357806336568abe14610256578063502d14f014610269578063637212d01461027c575f80fd5b806301ffc9a71461013657806304082ff41461015e5780631f78a27c1461017e578063248a9ca31461019f578063269149b4146101c1575b5f80fd5b61014961014436600461174a565b6103b1565b60405190151581526020015b60405180910390f35b61017161016c36600461178c565b6103e7565b60405161015591906117a5565b61019161018c3660046117f3565b6104a0565b604051908152602001610155565b6101916101ad3660046117f3565b5f9081526002602052604090206001015490565b6101d46101cf36600461180a565b610515565b604051610155919081516001600160a01b031681526020808301519082015260408083015190820152606080830151908201526080808301519082015260a0828101519082015260c0918201519181019190915260e00190565b61024161023c366004611843565b6105d8565b005b610241610251366004611881565b6106cc565b610241610264366004611881565b6106f6565b610241610277366004611993565b61072e565b6102a37f000000000000000000000000000000000000000000000000000000000000000081565b6040516001600160a01b039091168152602001610155565b6101916102c9366004611b90565b610990565b6102e16102dc36600461178c565b610a77565b60405161015593929190611ca4565b6101915f8051602061226883398151915281565b610149610312366004611881565b610b74565b6101915f81565b61019161032c366004611881565b610b9e565b6102a37f000000000000000000000000000000000000000000000000000000000000000081565b610241610366366004611881565b610c36565b61037e610379366004611d0f565b610c5a565b6040516101559190611d84565b610241610399366004611e04565b610e16565b6102416103ac366004611e82565b610f2b565b5f6001600160e01b03198216637965db0b60e01b14806103e157506301ffc9a760e01b6001600160e01b03198316145b92915050565b60606001600160a01b03821661042057604051634726455360e11b81526001600160a01b03831660048201526024015b60405180910390fd5b6001600160a01b0382165f90815260076020908152604080832080548251818502810185019093528083529193909284015b82821015610495578382905f5260205f2090600202016040518060400160405290815f820154815260200160018201548152505081526020019060010190610452565b505050509050919050565b5f806104b5680ad78ebc5ac620000084611f15565b90506104ca680ad78ebc5ac620000084611f28565b5f036104e9576104e281670de0b6b3a7640000611f3b565b9392505050565b680ad78ebc5ac620000061050582670de0b6b3a7640000611f3b565b6104e29190611f15565b50919050565b6105576040518060e001604052805f6001600160a01b031681526020015f81526020015f81526020015f81526020015f81526020015f81526020015f81525090565b506001600160a01b039283165f908152600560208181526040808420958716845294815284832093835292835290839020835160e0810185528154909516855260018101549285019290925260028201549284019290925260038101546060840152600481015460808401529081015460a08301526006015460c082015290565b6105e061114b565b6001600160a01b03851661061257604051634726455360e11b81526001600160a01b0386166004820152602401610417565b335f9081526005602081815260408084206001600160a01b038a81168652908352818520888652835293819020815160e08101835281549095168552600181015492850183905260028101549185019190915260038101546060850152600481015460808501529182015460a084015260069091015460c08301528590036106ad576040516316e9ad8f60e01b815260040160405180910390fd5b6106ba8686868587611175565b506106c56001600355565b5050505050565b5f828152600260205260409020600101546106e681611468565b6106f08383611475565b50505050565b6001600160a01b038116331461071f5760405163334bd91960e11b815260040160405180910390fd5b6107298282611506565b505050565b5f8051602061226883398151915261074581611468565b5f5b8251811015610729575f83828151811061076357610763611f52565b6020026020010151604001515190508060045f86858151811061078857610788611f52565b60200260200101515f01516001600160a01b03166001600160a01b031681526020019081526020015f20600201819055508382815181106107cb576107cb611f52565b60200260200101516020015160045f8685815181106107ec576107ec611f52565b60200260200101515f01516001600160a01b03166001600160a01b031681526020019081526020015f20600101819055505f805b828110156109825785848151811061083a5761083a611f52565b602002602001015160400151818151811061085757610857611f52565b602002602001015160045f88878151811061087457610874611f52565b602090810291909101810151516001600160a01b031682528181019290925260409081015f908120858252600301835220825192909101516001600160801b03908116600160801b02921691909117905580158015906109165750818685815181106108e2576108e2611f52565b60200260200101516040015182815181106108ff576108ff611f52565b60200260200101515f01516001600160801b031611155b1561093457604051631f6d92ef60e31b815260040160405180910390fd5b85848151811061094657610946611f52565b602002602001015160400151818151811061096357610963611f52565b6020908102919091010151516001600160801b03169150600101610820565b508260010192505050610747565b5f8061099b866103e7565b90505f805b8251816001600160801b03161015610a1e5782816001600160801b0316815181106109cd576109cd611f52565b60200260200101515f01518703610a0c5782816001600160801b0316815181106109f9576109f9611f52565b6020026020010151602001519150610a1e565b80610a1681611f66565b9150506109a0565b50805f03610a3f576040516337bf561360e11b815260040160405180910390fd5b5f610a49866104a0565b90505f828660400151610a5c9190611f3b565b90505f610a698383611f8b565b9a9950505050505050505050565b6001600160a01b0381165f908152600460205260409020805460028201549091606090826001600160401b03811115610ab257610ab26118ab565b604051908082528060200260200182016040528015610af657816020015b604080518082019091525f8082526020820152815260200190600190039081610ad05790505b5091505f5b83811015610b6b575f8181526003830160209081526040918290208251808401909352546001600160801b038082168452600160801b90910416908201528351849083908110610b4d57610b4d611f52565b60200260200101819052508080610b6390611f9e565b915050610afb565b50509193909250565b5f9182526002602090815260408084206001600160a01b0393909316845291905290205460ff1690565b6001600160a01b0381165f818152602081815260408083208684528252808320548352600182528083209383529290529081205460ff16610c135760405162461bcd60e51b815260206004820152600f60248201526e496e76616c6964206164647265737360881b6044820152606401610417565b506001600160a01b03165f90815260208181526040808320938352929052205490565b5f82815260026020526040902060010154610c5081611468565b6106f08383611506565b610c836040518060800160405280606081526020015f81526020015f8152602001606081525090565b6001600160a01b0383165f90815260066020908152604080832080548251818502810185019093528083529192909190849084015b82821015610de1578382905f5260205f2090600402016040518060800160405290815f8201805480602002602001604051908101604052809291908181526020018280548015610d2557602002820191905f5260205f20905b815481526020019060010190808311610d11575b505050505081526020016001820154815260200160028201548152602001600382018054610d5290611fb6565b80601f0160208091040260200160405190810160405280929190818152602001828054610d7e90611fb6565b8015610dc95780601f10610da057610100808354040283529160200191610dc9565b820191905f5260205f20905b815481529060010190602001808311610dac57829003601f168201915b50505050508152505081526020019060010190610cb8565b50505050905080600184610df59190611fe8565b81518110610e0557610e05611f52565b602002602001015191505092915050565b5f80516020612268833981519152610e2d81611468565b6001600160a01b038416610e5f57604051634726455360e11b81526001600160a01b0385166004820152602401610417565b5f5b61ffff8116831115610ee9576001600160a01b0385165f908152600760205260409020848461ffff8416818110610e9a57610e9a611f52565b83546001810185555f9485526020909420604090910292909201926002029091019050610ed4828281358155602082013560018201555050565b50508080610ee190611ffb565b915050610e61565b507f82e19752e1607a0fbfdc482e287f4a1858057f3054e4d0077b2e4c2915f72448848484604051610f1d93929190612011565b60405180910390a150505050565b5f80516020612268833981519152610f4281611468565b5f846001600160a01b03166306fdde036040518163ffffffff1660e01b81526004015f60405180830381865afa158015610f7e573d5f803e3d5ffd5b505050506040513d5f823e601f3d908101601f19168201604052610fa59190810190612069565b90505f5b83811015611101576001600160a01b0386165f90815260066020526040908190208151608081019092529080878785818110610fe757610fe7611f52565b9050602002810190610ff991906120da565b61100390806120f8565b808060200260200160405190810160405280939291908181526020018383602002808284375f9201919091525050509082525060200187878581811061104b5761104b611f52565b905060200281019061105d91906120da565b60200135815260200187878581811061107857611078611f52565b905060200281019061108a91906120da565b604001358152602090810185905282546001810184555f93845292819020825180519394600402909101926110c292849201906116ed565b506020820151600182015560408201516002820155606082015160038201906110eb9082612189565b50505080806110f990611f9e565b915050610fa9565b50604080516001600160a01b0387168152602081018590527fef18674c1ee59548b00a8b3788c84c419eb42f25561c9ca2b185199557e5fbcd910160405180910390a15050505050565b60026003540361116e57604051633ee5aeb560e01b815260040160405180910390fd5b6002600355565b42821015611196576040516337bf561360e11b815260040160405180910390fd5b6001600160a01b0385165f908152600460209081526040808320838052600301909152902054426001600160801b03909116106111f157604051631a7e275f60e11b81526001600160a01b0386166004820152602401610417565b5f6111fc8685610c5a565b90508060600151515f03611223576040516388cde06f60e01b815260040160405180910390fd5b80602001518211156112505780602001516040516324e33dfb60e21b815260040161041791815260200190565b805180515f919060208201835b8281101561128557898251036112765760019450611285565b6020919091019060010161125d565b505050816112a6576040516307ed98ed60e31b815260040160405180910390fd5b5f6112b389878787610990565b6001600160a01b038a165f908152600460205260408120805492935091839183916112df908490611f8b565b909155506112ee905033611571565b6040518060e001604052808b6001600160a01b031681526020018a815260200189815260200142815260200188426113269190611f8b565b81526020810184905260400187905260055f336001600160a01b03908116825260208083019390935260409182015f9081208f8316825284528281208e82528452829020845181546001600160a01b03191692169190911781559183015160018301558201516002820155606082015160038201556080820151600482015560a0820151600582015560c0909101516006909101556113c78a33308c6115e3565b6113f37f00000000000000000000000000000000000000000000000000000000000000003330896115e3565b7f4cb6a3a6035eaa7f6a865983751e09ab87b9d5780590880c7fc215df65b7cbea8a8a8a6114218b42611f8b565b604080516001600160a01b03909516855260208501939093529183015260608201526080810184905260a0810188905260c00160405180910390a150505050505050505050565b61147281336116b0565b50565b5f6114808383610b74565b6114ff575f8381526002602090815260408083206001600160a01b03861684529091529020805460ff191660011790556114b73390565b6001600160a01b0316826001600160a01b0316847f2f8788117e7eff1d82e926ec794901d17c78024a50270940304540a733656f0d60405160405180910390a45060016103e1565b505f6103e1565b5f6115118383610b74565b156114ff575f8381526002602090815260408083206001600160a01b0386168085529252808320805460ff1916905551339286917ff6391f5c32d9c69d2a47ea670b442974b53935d1edc7fd64eb21e047a839171b9190a45060016103e1565b6040516371e928af60e01b81526001600160a01b0382811660048301527f000000000000000000000000000000000000000000000000000000000000000016906371e928af906024015f604051808303815f87803b1580156115d1575f80fd5b505af11580156106c5573d5f803e3d5ffd5b604080516001600160a01b0385811660248301528481166044830152606480830185905283518084039091018152608490920183526020820180516001600160e01b03166323b872dd60e01b17905291515f928392908816916116469190612244565b5f604051808303815f865af19150503d805f811461167f576040519150601f19603f3d011682016040523d82523d5f602084013e611684565b606091505b5091509150816116a8578060405162461bcd60e51b81526004016104179190612255565b505050505050565b6116ba8282610b74565b6116e95760405163e2517d3f60e01b81526001600160a01b038216600482015260248101839052604401610417565b5050565b828054828255905f5260205f20908101928215611726579160200282015b8281111561172657825182559160200191906001019061170b565b50611732929150611736565b5090565b5b80821115611732575f8155600101611737565b5f6020828403121561175a575f80fd5b81356001600160e01b0319811681146104e2575f80fd5b80356001600160a01b0381168114611787575f80fd5b919050565b5f6020828403121561179c575f80fd5b6104e282611771565b602080825282518282018190525f919060409081850190868401855b828110156117e6578151805185528601518685015292840192908501906001016117c1565b5091979650505050505050565b5f60208284031215611803575f80fd5b5035919050565b5f805f6060848603121561181c575f80fd5b61182584611771565b925061183360208501611771565b9150604084013590509250925092565b5f805f805f60a08688031215611857575f80fd5b61186086611771565b97602087013597506040870135966060810135965060800135945092505050565b5f8060408385031215611892575f80fd5b823591506118a260208401611771565b90509250929050565b634e487b7160e01b5f52604160045260245ffd5b604051606081016001600160401b03811182821017156118e1576118e16118ab565b60405290565b604080519081016001600160401b03811182821017156118e1576118e16118ab565b604051608081016001600160401b03811182821017156118e1576118e16118ab565b604051601f8201601f191681016001600160401b0381118282101715611953576119536118ab565b604052919050565b5f6001600160401b03821115611973576119736118ab565b5060051b60200190565b80356001600160801b0381168114611787575f80fd5b5f602082840312156119a3575f80fd5b6001600160401b0380833511156119b8575f80fd5b8235830184601f8201126119ca575f80fd5b6119dc6119d7823561195b565b61192b565b81358082526020808301929160051b840101878111156119fa575f80fd5b602084015b81811015611b10578581351115611a14575f80fd5b803585016060818b03601f19011215611a2b575f80fd5b611a336118bf565b611a3f60208301611771565b8152604082013560208201528760608301351115611a5b575f80fd5b6060820135820191508a603f830112611a72575f80fd5b6020820135611a836119d78261195b565b81815260069190911b83016040019060208101908d831115611aa3575f80fd5b6040850194505b82851015611afa576040858f031215611ac1575f80fd5b611ac96118e7565b611ad28661197d565b8152611ae06020870161197d565b602082015280835250602082019150604085019450611aaa565b60408401525050855250602093840193016119ff565b5090979650505050505050565b5f6001600160401b03821115611b3557611b356118ab565b50601f01601f191660200190565b5f82601f830112611b52575f80fd5b8135611b606119d782611b1d565b818152846020838601011115611b74575f80fd5b816020850160208301375f918101602001919091529392505050565b5f805f8060808587031215611ba3575f80fd5b611bac85611771565b935060208086013593506040860135925060608601356001600160401b0380821115611bd6575f80fd5b908701906080828a031215611be9575f80fd5b611bf1611909565b823582811115611bff575f80fd5b8301601f81018b13611c0f575f80fd5b8035611c1d6119d78261195b565b81815260059190911b8201860190868101908d831115611c3b575f80fd5b928701925b82841015611c5957833582529287019290870190611c40565b808552505050508383013584820152604083013560408201526060830135935081841115611c85575f80fd5b611c918a858501611b43565b6060820152969995985093965050505050565b5f6060820185835260208581850152604060608186015282865180855260808701915083880194505f5b81811015611d0057855180516001600160801b0390811685529086015116858401529484019491830191600101611cce565b50909998505050505050505050565b5f8060408385031215611d20575f80fd5b611d2983611771565b946020939093013593505050565b5f5b83811015611d51578181015183820152602001611d39565b50505f910152565b5f8151808452611d70816020860160208601611d37565b601f01601f19169290920160200192915050565b60208082528251608083830152805160a084018190525f9291820190839060c08601905b80831015611dc85783518252928401926001929092019190840190611da8565b508387015160408701526040870151606087015260608701519350601f19868203016080870152611df98185611d59565b979650505050505050565b5f805f60408486031215611e16575f80fd5b611e1f84611771565b925060208401356001600160401b0380821115611e3a575f80fd5b818601915086601f830112611e4d575f80fd5b813581811115611e5b575f80fd5b8760208260061b8501011115611e6f575f80fd5b6020830194508093505050509250925092565b5f805f60408486031215611e94575f80fd5b611e9d84611771565b925060208401356001600160401b0380821115611eb8575f80fd5b818601915086601f830112611ecb575f80fd5b813581811115611ed9575f80fd5b8760208260051b8501011115611e6f575f80fd5b634e487b7160e01b5f52601260045260245ffd5b634e487b7160e01b5f52601160045260245ffd5b5f82611f2357611f23611eed565b500490565b5f82611f3657611f36611eed565b500690565b80820281158282048414176103e1576103e1611f01565b634e487b7160e01b5f52603260045260245ffd5b5f6001600160801b03808316818103611f8157611f81611f01565b6001019392505050565b808201808211156103e1576103e1611f01565b5f60018201611faf57611faf611f01565b5060010190565b600181811c90821680611fca57607f821691505b60208210810361050f57634e487b7160e01b5f52602260045260245ffd5b818103818111156103e1576103e1611f01565b5f61ffff808316818103611f8157611f81611f01565b6001600160a01b0384168152604060208083018290528282018490525f9190859060608501845b8781101561205c578335825282840135838301529284019290840190600101612038565b5098975050505050505050565b5f60208284031215612079575f80fd5b81516001600160401b0381111561208e575f80fd5b8201601f8101841361209e575f80fd5b80516120ac6119d782611b1d565b8181528560208385010111156120c0575f80fd5b6120d1826020830160208601611d37565b95945050505050565b5f8235605e198336030181126120ee575f80fd5b9190910192915050565b5f808335601e1984360301811261210d575f80fd5b8301803591506001600160401b03821115612126575f80fd5b6020019150600581901b360382131561213d575f80fd5b9250929050565b601f821115610729575f81815260208120601f850160051c8101602086101561216a5750805b601f850160051c820191505b818110156116a857828155600101612176565b81516001600160401b038111156121a2576121a26118ab565b6121b6816121b08454611fb6565b84612144565b602080601f8311600181146121e9575f84156121d25750858301515b5f19600386901b1c1916600185901b1785556116a8565b5f85815260208120601f198616915b82811015612217578886015182559484019460019091019084016121f8565b508582101561223457878501515f19600388901b60f8161c191681555b5050505050600190811b01905550565b5f82516120ee818460208701611d37565b602081525f6104e26020830184611d5956fea49807205ce4d355092ef5a8a18f56e8913cf4a201fbe287825b095693c21775a26469706673582212202da68c800891877d6882a6d35edb1fd4642dedc81216daf4db8848ced6acba2464736f6c63430008140033",
    "sourcePath": "/home/talha/Projects/ArgonTech/Galileo_Staking/contracts/GalileoStaking.sol",
    "compiler": {
        "name": "solc",
        "version": "0.8.20+commit.a1b79de6"
    },
    "functionHashes": {
        "ADMIN_ROLE()": "75b238fc",
        "DEFAULT_ADMIN_ROLE()": "a217fddf",
        "GalileoSoulBoundToken()": "cf140d99",
        "LEOX()": "637212d0",
        "calculatePoints(address,uint256,uint256,(uint256[],uint256,uint256,string))": "6c2b17a8",
        "calculateStakeLeoxPoints(uint256)": "1f78a27c",
        "configureCollection(address,(uint256[],uint256,uint256)[])": "f3ef3fde",
        "configurePool((address,uint256,(uint128,uint128)[])[])": "502d14f0",
        "getCategory(uint256,address)": "caadaa77",
        "getMaxLeoxPerCategory(address,uint256)": "dec9699d",
        "getMultipliers(address)": "04082ff4",
        "getPoolConfiguration(address)": "6f44bb69",
        "getRoleAdmin(bytes32)": "248a9ca3",
        "getStakersPosition(address,address,uint256)": "269149b4",
        "grantRole(bytes32,address)": "2f2ff15d",
        "hasRole(bytes32,address)": "91d14854",
        "renounceRole(bytes32,address)": "36568abe",
        "revokeRole(bytes32,address)": "d547741f",
        "setMultipliers(address,(uint256,uint256)[])": "f12a623b",
        "stake(address,uint256,uint256,uint256,uint256)": "2a0f7700",
        "supportsInterface(bytes4)": "01ffc9a7"
    },
    "gasEstimates": {
        "creation": {
            "codeDepositCost": "1778600",
            "executionCost": "infinite",
            "totalCost": "infinite"
        },
        "external": {
            "ADMIN_ROLE()": "infinite",
            "DEFAULT_ADMIN_ROLE()": "304",
            "GalileoSoulBoundToken()": "infinite",
            "LEOX()": "infinite",
            "calculatePoints(address,uint256,uint256,(uint256[],uint256,uint256,string))": "infinite",
            "calculateStakeLeoxPoints(uint256)": "infinite",
            "configureCollection(address,(uint256[],uint256,uint256)[])": "infinite",
            "configurePool((address,uint256,(uint128,uint128)[])[])": "infinite",
            "getCategory(uint256,address)": "7169",
            "getMaxLeoxPerCategory(address,uint256)": "infinite",
            "getMultipliers(address)": "infinite",
            "getPoolConfiguration(address)": "infinite",
            "getRoleAdmin(bytes32)": "2531",
            "getStakersPosition(address,address,uint256)": "infinite",
            "grantRole(bytes32,address)": "infinite",
            "hasRole(bytes32,address)": "2740",
            "renounceRole(bytes32,address)": "29091",
            "revokeRole(bytes32,address)": "infinite",
            "setMultipliers(address,(uint256,uint256)[])": "infinite",
            "stake(address,uint256,uint256,uint256,uint256)": "infinite",
            "supportsInterface(bytes4)": "447"
        },
        "internal": {
            "_assetTransfer(address,address,uint256)": "infinite",
            "_assetTransferFrom(address,address,address,uint256)": "infinite",
            "_burnSoulBoundToken(uint256)": "infinite",
            "_issueSoulBoundToken(address)": "infinite",
            "_stakeTokens(address,uint256,uint256,uint256,uint256)": "infinite"
        }
    }
}